{
  "_format": "hh-sol-artifact-1",
  "contractName": "PaymentGateway",
  "sourceName": "contracts/PaymentGateway.sol",
  "abi": [
    {
      "inputs": [
        {
          "internalType": "address",
          "name": "registry_",
          "type": "address"
        },
        {
          "internalType": "address",
          "name": "publicResolver_",
          "type": "address"
        },
        {
          "internalType": "address",
          "name": "verifier_",
          "type": "address"
        },
        {
          "internalType": "bool",
          "name": "_useSimpleENS",
          "type": "bool"
        },
        {
          "internalType": "address",
          "name": "_simpleENS",
          "type": "address"
        }
      ],
      "stateMutability": "nonpayable",
      "type": "constructor"
    },
    {
      "anonymous": false,
      "inputs": [
        {
          "indexed": true,
          "internalType": "bytes32",
          "name": "node",
          "type": "bytes32"
        },
        {
          "indexed": false,
          "internalType": "bytes32",
          "name": "teamRoot",
          "type": "bytes32"
        },
        {
          "indexed": false,
          "internalType": "uint256",
          "name": "maxPerPaymentWei",
          "type": "uint256"
        }
      ],
      "name": "CompanyRegistered",
      "type": "event"
    },
    {
      "anonymous": false,
      "inputs": [
        {
          "indexed": true,
          "internalType": "bytes32",
          "name": "companyNode",
          "type": "bytes32"
        },
        {
          "indexed": false,
          "internalType": "bytes32",
          "name": "newRoot",
          "type": "bytes32"
        }
      ],
      "name": "CompanyRootUpdated",
      "type": "event"
    },
    {
      "anonymous": false,
      "inputs": [
        {
          "indexed": true,
          "internalType": "bytes32",
          "name": "companyNode",
          "type": "bytes32"
        },
        {
          "indexed": false,
          "internalType": "address",
          "name": "issuer",
          "type": "address"
        }
      ],
      "name": "IssuerSet",
      "type": "event"
    },
    {
      "anonymous": false,
      "inputs": [
        {
          "indexed": true,
          "internalType": "bytes32",
          "name": "companyNode",
          "type": "bytes32"
        },
        {
          "indexed": false,
          "internalType": "bytes32",
          "name": "nullifier",
          "type": "bytes32"
        }
      ],
      "name": "NullifierRevoked",
      "type": "event"
    },
    {
      "anonymous": false,
      "inputs": [
        {
          "indexed": true,
          "internalType": "bytes32",
          "name": "companyNode",
          "type": "bytes32"
        },
        {
          "indexed": false,
          "internalType": "bytes32",
          "name": "paymentCommitment",
          "type": "bytes32"
        },
        {
          "indexed": false,
          "internalType": "address",
          "name": "token",
          "type": "address"
        },
        {
          "indexed": false,
          "internalType": "uint256",
          "name": "amount",
          "type": "uint256"
        },
        {
          "indexed": false,
          "internalType": "uint256",
          "name": "timestamp",
          "type": "uint256"
        }
      ],
      "name": "Paid",
      "type": "event"
    },
    {
      "inputs": [
        {
          "internalType": "bytes32",
          "name": "",
          "type": "bytes32"
        }
      ],
      "name": "companies",
      "outputs": [
        {
          "internalType": "bytes32",
          "name": "teamRoot",
          "type": "bytes32"
        },
        {
          "internalType": "uint256",
          "name": "maxPerPaymentWei",
          "type": "uint256"
        },
        {
          "internalType": "bool",
          "name": "exists",
          "type": "bool"
        },
        {
          "internalType": "address",
          "name": "issuer",
          "type": "address"
        }
      ],
      "stateMutability": "view",
      "type": "function"
    },
    {
      "inputs": [
        {
          "internalType": "bytes32",
          "name": "",
          "type": "bytes32"
        }
      ],
      "name": "nullifierUsed",
      "outputs": [
        {
          "internalType": "bool",
          "name": "",
          "type": "bool"
        }
      ],
      "stateMutability": "view",
      "type": "function"
    },
    {
      "inputs": [],
      "name": "owner",
      "outputs": [
        {
          "internalType": "address",
          "name": "",
          "type": "address"
        }
      ],
      "stateMutability": "view",
      "type": "function"
    },
    {
      "inputs": [
        {
          "internalType": "address",
          "name": "token",
          "type": "address"
        },
        {
          "internalType": "bytes32",
          "name": "companyNode",
          "type": "bytes32"
        },
        {
          "internalType": "uint256",
          "name": "amount",
          "type": "uint256"
        },
        {
          "internalType": "bytes",
          "name": "membershipProof",
          "type": "bytes"
        },
        {
          "internalType": "bytes32[]",
          "name": "membershipPublic",
          "type": "bytes32[]"
        },
        {
          "internalType": "bytes32",
          "name": "paymentCommitment",
          "type": "bytes32"
        }
      ],
      "name": "payERC20WithProof",
      "outputs": [],
      "stateMutability": "nonpayable",
      "type": "function"
    },
    {
      "inputs": [
        {
          "internalType": "bytes32",
          "name": "companyNode",
          "type": "bytes32"
        },
        {
          "internalType": "bytes32",
          "name": "paymentCommitment",
          "type": "bytes32"
        }
      ],
      "name": "payETH",
      "outputs": [],
      "stateMutability": "payable",
      "type": "function"
    },
    {
      "inputs": [
        {
          "internalType": "bytes32",
          "name": "companyNode",
          "type": "bytes32"
        },
        {
          "internalType": "bytes",
          "name": "membershipProof",
          "type": "bytes"
        },
        {
          "internalType": "bytes32[]",
          "name": "membershipPublic",
          "type": "bytes32[]"
        },
        {
          "internalType": "bytes32",
          "name": "paymentCommitment",
          "type": "bytes32"
        }
      ],
      "name": "payETHWithProof",
      "outputs": [],
      "stateMutability": "payable",
      "type": "function"
    },
    {
      "inputs": [],
      "name": "publicResolver",
      "outputs": [
        {
          "internalType": "address",
          "name": "",
          "type": "address"
        }
      ],
      "stateMutability": "view",
      "type": "function"
    },
    {
      "inputs": [
        {
          "internalType": "bytes32",
          "name": "node",
          "type": "bytes32"
        },
        {
          "internalType": "bytes32",
          "name": "teamRoot",
          "type": "bytes32"
        },
        {
          "internalType": "uint256",
          "name": "maxPerPaymentWei",
          "type": "uint256"
        }
      ],
      "name": "registerCompany",
      "outputs": [],
      "stateMutability": "nonpayable",
      "type": "function"
    },
    {
      "inputs": [],
      "name": "registry",
      "outputs": [
        {
          "internalType": "contract ENSRegistry",
          "name": "",
          "type": "address"
        }
      ],
      "stateMutability": "view",
      "type": "function"
    },
    {
      "inputs": [
        {
          "internalType": "bytes32",
          "name": "companyNode",
          "type": "bytes32"
        },
        {
          "internalType": "bytes32",
          "name": "nullifier",
          "type": "bytes32"
        }
      ],
      "name": "revokeNullifier",
      "outputs": [],
      "stateMutability": "nonpayable",
      "type": "function"
    },
    {
      "inputs": [
        {
          "internalType": "bytes32",
          "name": "",
          "type": "bytes32"
        },
        {
          "internalType": "bytes32",
          "name": "",
          "type": "bytes32"
        }
      ],
      "name": "revokedNullifier",
      "outputs": [
        {
          "internalType": "bool",
          "name": "",
          "type": "bool"
        }
      ],
      "stateMutability": "view",
      "type": "function"
    },
    {
      "inputs": [
        {
          "internalType": "bytes32",
          "name": "companyNode",
          "type": "bytes32"
        },
        {
          "internalType": "address",
          "name": "issuer_",
          "type": "address"
        }
      ],
      "name": "setCompanyIssuer",
      "outputs": [],
      "stateMutability": "nonpayable",
      "type": "function"
    },
    {
      "inputs": [
        {
          "internalType": "bool",
          "name": "useSimple",
          "type": "bool"
        },
        {
          "internalType": "address",
          "name": "simpleENS",
          "type": "address"
        }
      ],
      "name": "setSimpleENS",
      "outputs": [],
      "stateMutability": "nonpayable",
      "type": "function"
    },
    {
      "inputs": [
        {
          "internalType": "address",
          "name": "v",
          "type": "address"
        }
      ],
      "name": "setVerifier",
      "outputs": [],
      "stateMutability": "nonpayable",
      "type": "function"
    },
    {
      "inputs": [],
      "name": "simpleENSAddress",
      "outputs": [
        {
          "internalType": "address",
          "name": "",
          "type": "address"
        }
      ],
      "stateMutability": "view",
      "type": "function"
    },
    {
      "inputs": [
        {
          "internalType": "bytes32",
          "name": "companyNode",
          "type": "bytes32"
        },
        {
          "internalType": "bytes32",
          "name": "newRoot",
          "type": "bytes32"
        }
      ],
      "name": "updateTeamRoot",
      "outputs": [],
      "stateMutability": "nonpayable",
      "type": "function"
    },
    {
      "inputs": [],
      "name": "useSimpleENS",
      "outputs": [
        {
          "internalType": "bool",
          "name": "",
          "type": "bool"
        }
      ],
      "stateMutability": "view",
      "type": "function"
    },
    {
      "inputs": [],
      "name": "verifier",
      "outputs": [
        {
          "internalType": "contract NoirVerifier",
          "name": "",
          "type": "address"
        }
      ],
      "stateMutability": "view",
      "type": "function"
    }
  ],
  "bytecode": "0x60806040523480156200001157600080fd5b506040516200334f3803806200334f833981810160405281019062000037919062000248565b84600360006101000a81548173ffffffffffffffffffffffffffffffffffffffff021916908373ffffffffffffffffffffffffffffffffffffffff16021790555083600460006101000a81548173ffffffffffffffffffffffffffffffffffffffff021916908373ffffffffffffffffffffffffffffffffffffffff16021790555082600560006101000a81548173ffffffffffffffffffffffffffffffffffffffff021916908373ffffffffffffffffffffffffffffffffffffffff16021790555033600660006101000a81548173ffffffffffffffffffffffffffffffffffffffff021916908373ffffffffffffffffffffffffffffffffffffffff16021790555081600660146101000a81548160ff02191690831515021790555080600760006101000a81548173ffffffffffffffffffffffffffffffffffffffff021916908373ffffffffffffffffffffffffffffffffffffffff1602179055505050505050620002d0565b600080fd5b600073ffffffffffffffffffffffffffffffffffffffff82169050919050565b6000620001d382620001a6565b9050919050565b620001e581620001c6565b8114620001f157600080fd5b50565b6000815190506200020581620001da565b92915050565b60008115159050919050565b62000222816200020b565b81146200022e57600080fd5b50565b600081519050620002428162000217565b92915050565b600080600080600060a08688031215620002675762000266620001a1565b5b60006200027788828901620001f4565b95505060206200028a88828901620001f4565b94505060406200029d88828901620001f4565b9350506060620002b08882890162000231565b9250506080620002c388828901620001f4565b9150509295509295909350565b61306f80620002e06000396000f3fe6080604052600436106101095760003560e01c80637ecf686d11610095578063bc9941c811610064578063bc9941c81461034b578063d26e512b14610388578063d9811b3b146103b1578063f8256121146103cd578063fab9a8a9146103f857610109565b80637ecf686d1461027a5780638a0bdeb7146102b75780638da5cb5b146102f7578063a9f6575b1461032257610109565b80634b561955116100dc5780634b561955146101ab5780634f2ca1f7146101d45780635437988d146101fd5780635e0471ed146102265780637b1039991461024f57610109565b80630b16ff831461010e5780630f1792a61461013957806312601a4d146101645780632b7ac3f314610180575b600080fd5b34801561011a57600080fd5b50610123610421565b6040516101309190611f2a565b60405180910390f35b34801561014557600080fd5b5061014e610434565b60405161015b9190611f86565b60405180910390f35b61017e60048036038101906101799190611fe1565b61045a565b005b34801561018c57600080fd5b50610195610686565b6040516101a29190612080565b60405180910390f35b3480156101b757600080fd5b506101d260048036038101906101cd9190611fe1565b6106ac565b005b3480156101e057600080fd5b506101fb60048036038101906101f691906120f3565b61085f565b005b34801561020957600080fd5b50610224600480360381019061021f9190612133565b61094e565b005b34801561023257600080fd5b5061024d60048036038101906102489190611fe1565b610a22565b005b34801561025b57600080fd5b50610264610bf8565b6040516102719190612181565b60405180910390f35b34801561028657600080fd5b506102a1600480360381019061029c919061219c565b610c1e565b6040516102ae9190611f2a565b60405180910390f35b3480156102c357600080fd5b506102de60048036038101906102d9919061219c565b610c3e565b6040516102ee94939291906121f1565b60405180910390f35b34801561030357600080fd5b5061030c610c9b565b6040516103199190611f86565b60405180910390f35b34801561032e57600080fd5b506103496004803603810190610344919061231d565b610cc1565b005b34801561035757600080fd5b50610372600480360381019061036d9190611fe1565b611206565b60405161037f9190611f2a565b60405180910390f35b34801561039457600080fd5b506103af60048036038101906103aa91906123ec565b611235565b005b6103cb60048036038101906103c6919061242c565b6113b7565b005b3480156103d957600080fd5b506103e26118e9565b6040516103ef9190611f86565b60405180910390f35b34801561040457600080fd5b5061041f600480360381019061041a91906124d3565b61190f565b005b600660149054906101000a900460ff1681565b600760009054906101000a900473ffffffffffffffffffffffffffffffffffffffff1681565b600080600084815260200190815260200160002060405180608001604052908160008201548152602001600182015481526020016002820160009054906101000a900460ff161515151581526020016002820160019054906101000a900473ffffffffffffffffffffffffffffffffffffffff1673ffffffffffffffffffffffffffffffffffffffff1673ffffffffffffffffffffffffffffffffffffffff168152505090508060400151610544576040517f08c379a000000000000000000000000000000000000000000000000000000000815260040161053b90612583565b60405180910390fd5b60003411610587576040517f08c379a000000000000000000000000000000000000000000000000000000000815260040161057e906125ef565b60405180910390fd5b600061059284611aa9565b905060008173ffffffffffffffffffffffffffffffffffffffff16346040516105ba90612640565b60006040518083038185875af1925050503d80600081146105f7576040519150601f19603f3d011682016040523d82523d6000602084013e6105fc565b606091505b5050905080610640576040517f08c379a0000000000000000000000000000000000000000000000000000000008152600401610637906126a1565b60405180910390fd5b847fc6c77775af4ae2f436e6b2ed1e61f1308be0a74f81b511cd2198bed882bdc210856000344260405161067794939291906126c1565b60405180910390a25050505050565b600560009054906101000a900473ffffffffffffffffffffffffffffffffffffffff1681565b60008083815260200190815260200160002060020160009054906101000a900460ff1661070e576040517f08c379a000000000000000000000000000000000000000000000000000000000815260040161070590612583565b60405180910390fd5b600660009054906101000a900473ffffffffffffffffffffffffffffffffffffffff1673ffffffffffffffffffffffffffffffffffffffff163373ffffffffffffffffffffffffffffffffffffffff1614806107ca575060008083815260200190815260200160002060020160019054906101000a900473ffffffffffffffffffffffffffffffffffffffff1673ffffffffffffffffffffffffffffffffffffffff163373ffffffffffffffffffffffffffffffffffffffff16145b610809576040517f08c379a000000000000000000000000000000000000000000000000000000000815260040161080090612752565b60405180910390fd5b8060008084815260200190815260200160002060000181905550817fb1fb244aa9e286f10569c7de082268ec029cf5fa59764df9386cb023b7ed7627826040516108539190612772565b60405180910390a25050565b600660009054906101000a900473ffffffffffffffffffffffffffffffffffffffff1673ffffffffffffffffffffffffffffffffffffffff163373ffffffffffffffffffffffffffffffffffffffff16146108ef576040517f08c379a00000000000000000000000000000000000000000000000000000000081526004016108e6906127d9565b60405180910390fd5b81600660146101000a81548160ff02191690831515021790555080600760006101000a81548173ffffffffffffffffffffffffffffffffffffffff021916908373ffffffffffffffffffffffffffffffffffffffff1602179055505050565b600660009054906101000a900473ffffffffffffffffffffffffffffffffffffffff1673ffffffffffffffffffffffffffffffffffffffff163373ffffffffffffffffffffffffffffffffffffffff16146109de576040517f08c379a00000000000000000000000000000000000000000000000000000000081526004016109d5906127d9565b60405180910390fd5b80600560006101000a81548173ffffffffffffffffffffffffffffffffffffffff021916908373ffffffffffffffffffffffffffffffffffffffff16021790555050565b60008083815260200190815260200160002060020160009054906101000a900460ff16610a84576040517f08c379a0000000000000000000000000000000000000000000000000000000008152600401610a7b90612583565b60405180910390fd5b600660009054906101000a900473ffffffffffffffffffffffffffffffffffffffff1673ffffffffffffffffffffffffffffffffffffffff163373ffffffffffffffffffffffffffffffffffffffff161480610b40575060008083815260200190815260200160002060020160019054906101000a900473ffffffffffffffffffffffffffffffffffffffff1673ffffffffffffffffffffffffffffffffffffffff163373ffffffffffffffffffffffffffffffffffffffff16145b610b7f576040517f08c379a0000000000000000000000000000000000000000000000000000000008152600401610b7690612752565b60405180910390fd5b600160026000848152602001908152602001600020600083815260200190815260200160002060006101000a81548160ff021916908315150217905550817f022272f600d8fe88daa53443352482f3a1546468982956f9a336ab18a7f6b17282604051610bec9190612772565b60405180910390a25050565b600360009054906101000a900473ffffffffffffffffffffffffffffffffffffffff1681565b60016020528060005260406000206000915054906101000a900460ff1681565b60006020528060005260406000206000915090508060000154908060010154908060020160009054906101000a900460ff16908060020160019054906101000a900473ffffffffffffffffffffffffffffffffffffffff16905084565b600660009054906101000a900473ffffffffffffffffffffffffffffffffffffffff1681565b600080600089815260200190815260200160002060405180608001604052908160008201548152602001600182015481526020016002820160009054906101000a900460ff161515151581526020016002820160019054906101000a900473ffffffffffffffffffffffffffffffffffffffff1673ffffffffffffffffffffffffffffffffffffffff1673ffffffffffffffffffffffffffffffffffffffff168152505090508060400151610dab576040517f08c379a0000000000000000000000000000000000000000000000000000000008152600401610da290612583565b60405180910390fd5b60008711610dee576040517f08c379a0000000000000000000000000000000000000000000000000000000008152600401610de590612845565b60405180910390fd5b6003848490501015610e35576040517f08c379a0000000000000000000000000000000000000000000000000000000008152600401610e2c906128b1565b60405180910390fd5b806000015184846000818110610e4e57610e4d6128d1565b5b9050602002013514610e95576040517f08c379a0000000000000000000000000000000000000000000000000000000008152600401610e8c9061294c565b60405180910390fd5b8184846002818110610eaa57610ea96128d1565b5b9050602002013514610ef1576040517f08c379a0000000000000000000000000000000000000000000000000000000008152600401610ee8906129b8565b60405180910390fd5b600084846001818110610f0757610f066128d1565b5b905060200201359050600260008a8152602001908152602001600020600082815260200190815260200160002060009054906101000a900460ff1615610f82576040517f08c379a0000000000000000000000000000000000000000000000000000000008152600401610f7990612a24565b60405180910390fd5b6001600082815260200190815260200160002060009054906101000a900460ff1615610fe3576040517f08c379a0000000000000000000000000000000000000000000000000000000008152600401610fda90612a90565b60405180910390fd5b600560009054906101000a900473ffffffffffffffffffffffffffffffffffffffff1673ffffffffffffffffffffffffffffffffffffffff1663ea50d0e4888888886040518563ffffffff1660e01b81526004016110449493929190612b89565b602060405180830381865afa158015611061573d6000803e3d6000fd5b505050506040513d601f19601f820116820180604052508101906110859190612bd9565b6110c4576040517f08c379a00000000000000000000000000000000000000000000000000000000081526004016110bb90612c52565b60405180910390fd5b600180600083815260200190815260200160002060006101000a81548160ff02191690831515021790555060006110fa8a611aa9565b90508a73ffffffffffffffffffffffffffffffffffffffff166323b872dd33838c6040518463ffffffff1660e01b815260040161113993929190612c93565b6020604051808303816000875af1158015611158573d6000803e3d6000fd5b505050506040513d601f19601f8201168201806040525081019061117c9190612bd9565b6111bb576040517f08c379a00000000000000000000000000000000000000000000000000000000081526004016111b290612d16565b60405180910390fd5b897fc6c77775af4ae2f436e6b2ed1e61f1308be0a74f81b511cd2198bed882bdc210858d8c426040516111f194939291906126c1565b60405180910390a25050505050505050505050565b60026020528160005260406000206020528060005260406000206000915091509054906101000a900460ff1681565b600660009054906101000a900473ffffffffffffffffffffffffffffffffffffffff1673ffffffffffffffffffffffffffffffffffffffff163373ffffffffffffffffffffffffffffffffffffffff16146112c5576040517f08c379a00000000000000000000000000000000000000000000000000000000081526004016112bc906127d9565b60405180910390fd5b60008083815260200190815260200160002060020160009054906101000a900460ff16611327576040517f08c379a000000000000000000000000000000000000000000000000000000000815260040161131e90612583565b60405180910390fd5b8060008084815260200190815260200160002060020160016101000a81548173ffffffffffffffffffffffffffffffffffffffff021916908373ffffffffffffffffffffffffffffffffffffffff160217905550817f72bef11912365ac9e0b4844aa069df3cd79d8f4067fb36a25590c79ae001afeb826040516113ab9190611f86565b60405180910390a25050565b600080600088815260200190815260200160002060405180608001604052908160008201548152602001600182015481526020016002820160009054906101000a900460ff161515151581526020016002820160019054906101000a900473ffffffffffffffffffffffffffffffffffffffff1673ffffffffffffffffffffffffffffffffffffffff1673ffffffffffffffffffffffffffffffffffffffff1681525050905080604001516114a1576040517f08c379a000000000000000000000000000000000000000000000000000000000815260040161149890612583565b60405180910390fd5b600034116114e4576040517f08c379a00000000000000000000000000000000000000000000000000000000081526004016114db906125ef565b60405180910390fd5b600384849050101561152b576040517f08c379a0000000000000000000000000000000000000000000000000000000008152600401611522906128b1565b60405180910390fd5b806000015184846000818110611544576115436128d1565b5b905060200201351461158b576040517f08c379a00000000000000000000000000000000000000000000000000000000081526004016115829061294c565b60405180910390fd5b81848460028181106115a05761159f6128d1565b5b90506020020135146115e7576040517f08c379a00000000000000000000000000000000000000000000000000000000081526004016115de906129b8565b60405180910390fd5b6000848460018181106115fd576115fc6128d1565b5b90506020020135905060026000898152602001908152602001600020600082815260200190815260200160002060009054906101000a900460ff1615611678576040517f08c379a000000000000000000000000000000000000000000000000000000000815260040161166f90612a24565b60405180910390fd5b6001600082815260200190815260200160002060009054906101000a900460ff16156116d9576040517f08c379a00000000000000000000000000000000000000000000000000000000081526004016116d090612a90565b60405180910390fd5b600560009054906101000a900473ffffffffffffffffffffffffffffffffffffffff1673ffffffffffffffffffffffffffffffffffffffff1663ea50d0e4888888886040518563ffffffff1660e01b815260040161173a9493929190612b89565b602060405180830381865afa158015611757573d6000803e3d6000fd5b505050506040513d601f19601f8201168201806040525081019061177b9190612bd9565b6117ba576040517f08c379a00000000000000000000000000000000000000000000000000000000081526004016117b190612c52565b60405180910390fd5b600180600083815260200190815260200160002060006101000a81548160ff02191690831515021790555060006117f089611aa9565b905060008173ffffffffffffffffffffffffffffffffffffffff163460405161181890612640565b60006040518083038185875af1925050503d8060008114611855576040519150601f19603f3d011682016040523d82523d6000602084013e61185a565b606091505b505090508061189e576040517f08c379a0000000000000000000000000000000000000000000000000000000008152600401611895906126a1565b60405180910390fd5b897fc6c77775af4ae2f436e6b2ed1e61f1308be0a74f81b511cd2198bed882bdc21086600034426040516118d594939291906126c1565b60405180910390a250505050505050505050565b600460009054906101000a900473ffffffffffffffffffffffffffffffffffffffff1681565b600660009054906101000a900473ffffffffffffffffffffffffffffffffffffffff1673ffffffffffffffffffffffffffffffffffffffff163373ffffffffffffffffffffffffffffffffffffffff161461199f576040517f08c379a0000000000000000000000000000000000000000000000000000000008152600401611996906127d9565b60405180910390fd5b6040518060800160405280838152602001828152602001600115158152602001600073ffffffffffffffffffffffffffffffffffffffff16815250600080858152602001908152602001600020600082015181600001556020820151816001015560408201518160020160006101000a81548160ff02191690831515021790555060608201518160020160016101000a81548173ffffffffffffffffffffffffffffffffffffffff021916908373ffffffffffffffffffffffffffffffffffffffff160217905550905050827f1845618fe72bc1e083690f44501113d845e8f2bd686d49e0c94a2703539c7eae8383604051611a9c929190612d36565b60405180910390a2505050565b6000600660149054906101000a900460ff1615611cae57600080600760009054906101000a900473ffffffffffffffffffffffffffffffffffffffff1673ffffffffffffffffffffffffffffffffffffffff1684604051602401611b0d9190612772565b6040516020818303038152906040527f4ccee9b6000000000000000000000000000000000000000000000000000000007bffffffffffffffffffffffffffffffffffffffffffffffffffffffff19166020820180517bffffffffffffffffffffffffffffffffffffffffffffffffffffffff8381831617835250505050604051611b979190612dc5565b600060405180830381855afa9150503d8060008114611bd2576040519150601f19603f3d011682016040523d82523d6000602084013e611bd7565b606091505b509150915081611c1c576040517f08c379a0000000000000000000000000000000000000000000000000000000008152600401611c1390612e28565b60405180910390fd5b600081806020019051810190611c329190612e86565b9050600073ffffffffffffffffffffffffffffffffffffffff168173ffffffffffffffffffffffffffffffffffffffff1603611ca3576040517f08c379a0000000000000000000000000000000000000000000000000000000008152600401611c9a90612eff565b60405180910390fd5b809350505050611f0a565b6000600360009054906101000a900473ffffffffffffffffffffffffffffffffffffffff1673ffffffffffffffffffffffffffffffffffffffff16630178b8bf846040518263ffffffff1660e01b8152600401611d0b9190612772565b602060405180830381865afa158015611d28573d6000803e3d6000fd5b505050506040513d601f19601f82011682018060405250810190611d4c9190612f34565b9050600073ffffffffffffffffffffffffffffffffffffffff168173ffffffffffffffffffffffffffffffffffffffff1603611da857600460009054906101000a900473ffffffffffffffffffffffffffffffffffffffff1690505b600073ffffffffffffffffffffffffffffffffffffffff168173ffffffffffffffffffffffffffffffffffffffff1603611e17576040517f08c379a0000000000000000000000000000000000000000000000000000000008152600401611e0e90612fad565b60405180910390fd5b60008173ffffffffffffffffffffffffffffffffffffffff16633b3b57de856040518263ffffffff1660e01b8152600401611e529190612772565b602060405180830381865afa158015611e6f573d6000803e3d6000fd5b505050506040513d601f19601f82011682018060405250810190611e939190612e86565b9050600073ffffffffffffffffffffffffffffffffffffffff168173ffffffffffffffffffffffffffffffffffffffff1603611f04576040517f08c379a0000000000000000000000000000000000000000000000000000000008152600401611efb90613019565b60405180910390fd5b80925050505b919050565b60008115159050919050565b611f2481611f0f565b82525050565b6000602082019050611f3f6000830184611f1b565b92915050565b600073ffffffffffffffffffffffffffffffffffffffff82169050919050565b6000611f7082611f45565b9050919050565b611f8081611f65565b82525050565b6000602082019050611f9b6000830184611f77565b92915050565b600080fd5b600080fd5b6000819050919050565b611fbe81611fab565b8114611fc957600080fd5b50565b600081359050611fdb81611fb5565b92915050565b60008060408385031215611ff857611ff7611fa1565b5b600061200685828601611fcc565b925050602061201785828601611fcc565b9150509250929050565b6000819050919050565b600061204661204161203c84611f45565b612021565b611f45565b9050919050565b60006120588261202b565b9050919050565b600061206a8261204d565b9050919050565b61207a8161205f565b82525050565b60006020820190506120956000830184612071565b92915050565b6120a481611f0f565b81146120af57600080fd5b50565b6000813590506120c18161209b565b92915050565b6120d081611f65565b81146120db57600080fd5b50565b6000813590506120ed816120c7565b92915050565b6000806040838503121561210a57612109611fa1565b5b6000612118858286016120b2565b9250506020612129858286016120de565b9150509250929050565b60006020828403121561214957612148611fa1565b5b6000612157848285016120de565b91505092915050565b600061216b8261204d565b9050919050565b61217b81612160565b82525050565b60006020820190506121966000830184612172565b92915050565b6000602082840312156121b2576121b1611fa1565b5b60006121c084828501611fcc565b91505092915050565b6121d281611fab565b82525050565b6000819050919050565b6121eb816121d8565b82525050565b600060808201905061220660008301876121c9565b61221360208301866121e2565b6122206040830185611f1b565b61222d6060830184611f77565b95945050505050565b61223f816121d8565b811461224a57600080fd5b50565b60008135905061225c81612236565b92915050565b600080fd5b600080fd5b600080fd5b60008083601f84011261228757612286612262565b5b8235905067ffffffffffffffff8111156122a4576122a3612267565b5b6020830191508360018202830111156122c0576122bf61226c565b5b9250929050565b60008083601f8401126122dd576122dc612262565b5b8235905067ffffffffffffffff8111156122fa576122f9612267565b5b6020830191508360208202830111156123165761231561226c565b5b9250929050565b60008060008060008060008060c0898b03121561233d5761233c611fa1565b5b600061234b8b828c016120de565b985050602061235c8b828c01611fcc565b975050604061236d8b828c0161224d565b965050606089013567ffffffffffffffff81111561238e5761238d611fa6565b5b61239a8b828c01612271565b9550955050608089013567ffffffffffffffff8111156123bd576123bc611fa6565b5b6123c98b828c016122c7565b935093505060a06123dc8b828c01611fcc565b9150509295985092959890939650565b6000806040838503121561240357612402611fa1565b5b600061241185828601611fcc565b9250506020612422858286016120de565b9150509250929050565b6000806000806000806080878903121561244957612448611fa1565b5b600061245789828a01611fcc565b965050602087013567ffffffffffffffff81111561247857612477611fa6565b5b61248489828a01612271565b9550955050604087013567ffffffffffffffff8111156124a7576124a6611fa6565b5b6124b389828a016122c7565b935093505060606124c689828a01611fcc565b9150509295509295509295565b6000806000606084860312156124ec576124eb611fa1565b5b60006124fa86828701611fcc565b935050602061250b86828701611fcc565b925050604061251c8682870161224d565b9150509250925092565b600082825260208201905092915050565b7f436f6d70616e79206e6f7420666f756e64000000000000000000000000000000600082015250565b600061256d601183612526565b915061257882612537565b602082019050919050565b6000602082019050818103600083015261259c81612560565b9050919050565b7f4e6f204554482073656e74000000000000000000000000000000000000000000600082015250565b60006125d9600b83612526565b91506125e4826125a3565b602082019050919050565b60006020820190508181036000830152612608816125cc565b9050919050565b600081905092915050565b50565b600061262a60008361260f565b91506126358261261a565b600082019050919050565b600061264b8261261d565b9150819050919050565b7f7472616e73666572206661696c65640000000000000000000000000000000000600082015250565b600061268b600f83612526565b915061269682612655565b602082019050919050565b600060208201905081810360008301526126ba8161267e565b9050919050565b60006080820190506126d660008301876121c9565b6126e36020830186611f77565b6126f060408301856121e2565b6126fd60608301846121e2565b95945050505050565b7f6e6f7420617574686f72697a6564000000000000000000000000000000000000600082015250565b600061273c600e83612526565b915061274782612706565b602082019050919050565b6000602082019050818103600083015261276b8161272f565b9050919050565b600060208201905061278760008301846121c9565b92915050565b7f6f6e6c79206f776e657200000000000000000000000000000000000000000000600082015250565b60006127c3600a83612526565b91506127ce8261278d565b602082019050919050565b600060208201905081810360008301526127f2816127b6565b9050919050565b7f4e6f20746f6b656e732073706563696669656400000000000000000000000000600082015250565b600061282f601383612526565b915061283a826127f9565b602082019050919050565b6000602082019050818103600083015261285e81612822565b9050919050565b7f626164207075626c696320696e70757473000000000000000000000000000000600082015250565b600061289b601183612526565b91506128a682612865565b602082019050919050565b600060208201905081810360008301526128ca8161288e565b9050919050565b7f4e487b7100000000000000000000000000000000000000000000000000000000600052603260045260246000fd5b7f726f6f74206d69736d6174636800000000000000000000000000000000000000600082015250565b6000612936600d83612526565b915061294182612900565b602082019050919050565b6000602082019050818103600083015261296581612929565b9050919050565b7f636f6d6d6974206d69736d617463680000000000000000000000000000000000600082015250565b60006129a2600f83612526565b91506129ad8261296c565b602082019050919050565b600060208201905081810360008301526129d181612995565b9050919050565b7f6e756c6c6966696572207265766f6b6564000000000000000000000000000000600082015250565b6000612a0e601183612526565b9150612a19826129d8565b602082019050919050565b60006020820190508181036000830152612a3d81612a01565b9050919050565b7f6e756c6c69666965722075736564000000000000000000000000000000000000600082015250565b6000612a7a600e83612526565b9150612a8582612a44565b602082019050919050565b60006020820190508181036000830152612aa981612a6d565b9050919050565b600082825260208201905092915050565b82818337600083830152505050565b6000601f19601f8301169050919050565b6000612aed8385612ab0565b9350612afa838584612ac1565b612b0383612ad0565b840190509392505050565b600082825260208201905092915050565b600080fd5b82818337505050565b6000612b398385612b0e565b93507f07ffffffffffffffffffffffffffffffffffffffffffffffffffffffffffffff831115612b6c57612b6b612b1f565b5b602083029250612b7d838584612b24565b82840190509392505050565b60006040820190508181036000830152612ba4818688612ae1565b90508181036020830152612bb9818486612b2d565b905095945050505050565b600081519050612bd38161209b565b92915050565b600060208284031215612bef57612bee611fa1565b5b6000612bfd84828501612bc4565b91505092915050565b7f6261642070726f6f660000000000000000000000000000000000000000000000600082015250565b6000612c3c600983612526565b9150612c4782612c06565b602082019050919050565b60006020820190508181036000830152612c6b81612c2f565b9050919050565b6000612c7d8261204d565b9050919050565b612c8d81612c72565b82525050565b6000606082019050612ca86000830186611f77565b612cb56020830185612c84565b612cc260408301846121e2565b949350505050565b7f4552433230207472616e73666572206661696c65640000000000000000000000600082015250565b6000612d00601583612526565b9150612d0b82612cca565b602082019050919050565b60006020820190508181036000830152612d2f81612cf3565b9050919050565b6000604082019050612d4b60008301856121c9565b612d5860208301846121e2565b9392505050565b600081519050919050565b60005b83811015612d88578082015181840152602081019050612d6d565b60008484015250505050565b6000612d9f82612d5f565b612da9818561260f565b9350612db9818560208601612d6a565b80840191505092915050565b6000612dd18284612d94565b915081905092915050565b7f73696d706c6520454e532063616c6c206661696c656400000000000000000000600082015250565b6000612e12601683612526565b9150612e1d82612ddc565b602082019050919050565b60006020820190508181036000830152612e4181612e05565b9050919050565b6000612e5382611f45565b9050919050565b612e6381612e48565b8114612e6e57600080fd5b50565b600081519050612e8081612e5a565b92915050565b600060208284031215612e9c57612e9b611fa1565b5b6000612eaa84828501612e71565b91505092915050565b7f6e6f206164647220696e2073696d706c6520656e730000000000000000000000600082015250565b6000612ee9601583612526565b9150612ef482612eb3565b602082019050919050565b60006020820190508181036000830152612f1881612edc565b9050919050565b600081519050612f2e816120c7565b92915050565b600060208284031215612f4a57612f49611fa1565b5b6000612f5884828501612f1f565b91505092915050565b7f4e6f207265736f6c766572000000000000000000000000000000000000000000600082015250565b6000612f97600b83612526565b9150612fa282612f61565b602082019050919050565b60006020820190508181036000830152612fc681612f8a565b9050919050565b7f4e6f206164647200000000000000000000000000000000000000000000000000600082015250565b6000613003600783612526565b915061300e82612fcd565b602082019050919050565b6000602082019050818103600083015261303281612ff6565b905091905056fea26469706673582212200a303823d77977023ce80f80b3c9c90fcc6aa015b801ca0020985581bb6b8ef664736f6c63430008180033",
  "linkReferences": {},
  "deployedLinkReferences": {}
}