{
  "_format": "hh-sol-artifact-1",
  "contractName": "SimpleENS",
  "sourceName": "contracts/SimpleENS.sol",
  "abi": [
    {
      "anonymous": false,
      "inputs": [
        {
          "indexed": true,
          "internalType": "bytes32",
          "name": "node",
          "type": "bytes32"
        },
        {
          "indexed": true,
          "internalType": "address",
          "name": "resolved",
          "type": "address"
        }
      ],
      "name": "ENSSet",
      "type": "event"
    },
    {
      "inputs": [
        {
          "internalType": "bytes32",
          "name": "",
          "type": "bytes32"
        }
      ],
      "name": "addr",
      "outputs": [
        {
          "internalType": "address",
          "name": "",
          "type": "address"
        }
      ],
      "stateMutability": "view",
      "type": "function"
    },
    {
      "inputs": [
        {
          "internalType": "bytes32",
          "name": "node",
          "type": "bytes32"
        }
      ],
      "name": "getAddr",
      "outputs": [
        {
          "internalType": "address",
          "name": "",
          "type": "address"
        }
      ],
      "stateMutability": "view",
      "type": "function"
    },
    {
      "inputs": [
        {
          "internalType": "bytes32",
          "name": "node",
          "type": "bytes32"
        },
        {
          "internalType": "address",
          "name": "resolved",
          "type": "address"
        }
      ],
      "name": "setAddr",
      "outputs": [],
      "stateMutability": "nonpayable",
      "type": "function"
    }
  ],
  "bytecode": "0x608060405234801561001057600080fd5b50610330806100206000396000f3fe608060405234801561001057600080fd5b50600436106100415760003560e01c80633b3b57de146100465780634ccee9b614610076578063d5fa2b00146100a6575b600080fd5b610060600480360381019061005b9190610205565b6100c2565b60405161006d9190610273565b60405180910390f35b610090600480360381019061008b9190610205565b6100f5565b60405161009d9190610273565b60405180910390f35b6100c060048036038101906100bb91906102ba565b610131565b005b60006020528060005260406000206000915054906101000a900473ffffffffffffffffffffffffffffffffffffffff1681565b600080600083815260200190815260200160002060009054906101000a900473ffffffffffffffffffffffffffffffffffffffff169050919050565b8060008084815260200190815260200160002060006101000a81548173ffffffffffffffffffffffffffffffffffffffff021916908373ffffffffffffffffffffffffffffffffffffffff1602179055508073ffffffffffffffffffffffffffffffffffffffff16827f994cf24a50f0ade6bc8bbb8f844afd18cca5c881d706b797bab4481a97397dfc60405160405180910390a35050565b600080fd5b6000819050919050565b6101e2816101cf565b81146101ed57600080fd5b50565b6000813590506101ff816101d9565b92915050565b60006020828403121561021b5761021a6101ca565b5b6000610229848285016101f0565b91505092915050565b600073ffffffffffffffffffffffffffffffffffffffff82169050919050565b600061025d82610232565b9050919050565b61026d81610252565b82525050565b60006020820190506102886000830184610264565b92915050565b61029781610252565b81146102a257600080fd5b50565b6000813590506102b48161028e565b92915050565b600080604083850312156102d1576102d06101ca565b5b60006102df858286016101f0565b92505060206102f0858286016102a5565b915050925092905056fea2646970667358221220aaed9b6144adcad3f76f17b282b900527fbe844e9cf6abcb1b69baf09fdcefd064736f6c63430008180033",
  "linkReferences": {},
  "deployedLinkReferences": {}
}